{
  "contractName": "Owners",
  "abi": [
    {
      "anonymous": false,
      "inputs": [
        {
          "indexed": false,
          "internalType": "uint256",
          "name": "houseId",
          "type": "uint256"
        },
        {
          "indexed": false,
          "internalType": "string",
          "name": "seller",
          "type": "string"
        },
        {
          "indexed": false,
          "internalType": "string",
          "name": "state",
          "type": "string"
        },
        {
          "indexed": false,
          "internalType": "string",
          "name": "street",
          "type": "string"
        },
        {
          "indexed": false,
          "internalType": "uint256",
          "name": "precio",
          "type": "uint256"
        },
        {
          "indexed": false,
          "internalType": "uint256",
          "name": "rooms",
          "type": "uint256"
        },
        {
          "indexed": false,
          "internalType": "bool",
          "name": "isAvailable",
          "type": "bool"
        },
        {
          "indexed": false,
          "internalType": "address payable",
          "name": "vendedor",
          "type": "address"
        }
      ],
      "name": "HouseBuy",
      "type": "event"
    },
    {
      "anonymous": false,
      "inputs": [
        {
          "indexed": false,
          "internalType": "uint256",
          "name": "houseId",
          "type": "uint256"
        },
        {
          "indexed": false,
          "internalType": "string",
          "name": "seller",
          "type": "string"
        },
        {
          "indexed": false,
          "internalType": "string",
          "name": "state",
          "type": "string"
        },
        {
          "indexed": false,
          "internalType": "string",
          "name": "street",
          "type": "string"
        },
        {
          "indexed": false,
          "internalType": "uint256",
          "name": "precio",
          "type": "uint256"
        },
        {
          "indexed": false,
          "internalType": "uint256",
          "name": "rooms",
          "type": "uint256"
        },
        {
          "indexed": false,
          "internalType": "bool",
          "name": "isAvailable",
          "type": "bool"
        },
        {
          "indexed": false,
          "internalType": "address payable",
          "name": "vendedor",
          "type": "address"
        }
      ],
      "name": "HouseEvent",
      "type": "event"
    },
    {
      "inputs": [
        {
          "internalType": "uint256",
          "name": "",
          "type": "uint256"
        }
      ],
      "name": "houses",
      "outputs": [
        {
          "internalType": "uint256",
          "name": "houseId",
          "type": "uint256"
        },
        {
          "internalType": "string",
          "name": "seller",
          "type": "string"
        },
        {
          "internalType": "string",
          "name": "state",
          "type": "string"
        },
        {
          "internalType": "string",
          "name": "street",
          "type": "string"
        },
        {
          "internalType": "uint256",
          "name": "precio",
          "type": "uint256"
        },
        {
          "internalType": "uint256",
          "name": "rooms",
          "type": "uint256"
        },
        {
          "internalType": "bool",
          "name": "isAvailable",
          "type": "bool"
        },
        {
          "internalType": "address payable",
          "name": "vendedor",
          "type": "address"
        }
      ],
      "stateMutability": "view",
      "type": "function"
    },
    {
      "inputs": [],
      "name": "total",
      "outputs": [
        {
          "internalType": "uint256",
          "name": "",
          "type": "uint256"
        }
      ],
      "stateMutability": "view",
      "type": "function"
    },
    {
      "inputs": [
        {
          "internalType": "uint256",
          "name": "_houseId",
          "type": "uint256"
        }
      ],
      "name": "buy",
      "outputs": [],
      "stateMutability": "payable",
      "type": "function"
    },
    {
      "inputs": [
        {
          "internalType": "string",
          "name": "_seller",
          "type": "string"
        },
        {
          "internalType": "string",
          "name": "_state",
          "type": "string"
        },
        {
          "internalType": "string",
          "name": "_street",
          "type": "string"
        }
      ],
      "name": "addNewHouse",
      "outputs": [],
      "stateMutability": "nonpayable",
      "type": "function"
    }
  ],
  "bytecode": "0x6080604052600060015534801561001557600080fd5b50610dca806100256000396000f3fe60806040526004361061003f5760003560e01c80631cd9d1f0146100445780632ddbd13a1461006d578063aeda852f14610098578063d96a094a146100dc575b600080fd5b34801561005057600080fd5b5061006b6004803603810190610066919061093b565b6100f8565b005b34801561007957600080fd5b506100826102b3565b60405161008f9190610a75565b60405180910390f35b3480156100a457600080fd5b506100bf60048036038101906100ba91906109e2565b6102b9565b6040516100d3989796959493929190610a90565b60405180910390f35b6100f660048036038101906100f191906109e2565b6104c6565b005b600060c890506000600390506001600081548092919061011790610c82565b919050555060405180610100016040528060015481526020018681526020018581526020018481526020018381526020018281526020016001151581526020013373ffffffffffffffffffffffffffffffffffffffff1681525060008060015481526020019081526020016000206000820151816000015560208201518160010190805190602001906101ab929190610813565b5060408201518160020190805190602001906101c8929190610813565b5060608201518160030190805190602001906101e5929190610813565b506080820151816004015560a0820151816005015560c08201518160060160006101000a81548160ff02191690831515021790555060e08201518160060160016101000a81548173ffffffffffffffffffffffffffffffffffffffff021916908373ffffffffffffffffffffffffffffffffffffffff1602179055509050507f4360f1b55d5c4b0641788ff096e7901174f6d22c8e1d58b346bc8e98fd586a7a60015486868686866001336040516102a4989796959493929190610a90565b60405180910390a15050505050565b60015481565b60006020528060005260406000206000915090508060000154908060010180546102e290610c1f565b80601f016020809104026020016040519081016040528092919081815260200182805461030e90610c1f565b801561035b5780601f106103305761010080835404028352916020019161035b565b820191906000526020600020905b81548152906001019060200180831161033e57829003601f168201915b50505050509080600201805461037090610c1f565b80601f016020809104026020016040519081016040528092919081815260200182805461039c90610c1f565b80156103e95780601f106103be576101008083540402835291602001916103e9565b820191906000526020600020905b8154815290600101906020018083116103cc57829003601f168201915b5050505050908060030180546103fe90610c1f565b80601f016020809104026020016040519081016040528092919081815260200182805461042a90610c1f565b80156104775780601f1061044c57610100808354040283529160200191610477565b820191906000526020600020905b81548152906001019060200180831161045a57829003601f168201915b5050505050908060040154908060050154908060060160009054906101000a900460ff16908060060160019054906101000a900473ffffffffffffffffffffffffffffffffffffffff16905088565b600081101580156104d8575060015481105b6104e157600080fd5b6000806000838152602001908152602001600020604051806101000160405290816000820154815260200160018201805461051b90610c1f565b80601f016020809104026020016040519081016040528092919081815260200182805461054790610c1f565b80156105945780601f1061056957610100808354040283529160200191610594565b820191906000526020600020905b81548152906001019060200180831161057757829003601f168201915b505050505081526020016002820180546105ad90610c1f565b80601f01602080910402602001604051908101604052809291908181526020018280546105d990610c1f565b80156106265780601f106105fb57610100808354040283529160200191610626565b820191906000526020600020905b81548152906001019060200180831161060957829003601f168201915b5050505050815260200160038201805461063f90610c1f565b80601f016020809104026020016040519081016040528092919081815260200182805461066b90610c1f565b80156106b85780601f1061068d576101008083540402835291602001916106b8565b820191906000526020600020905b81548152906001019060200180831161069b57829003601f168201915b5050505050815260200160048201548152602001600582015481526020016006820160009054906101000a900460ff161515151581526020016006820160019054906101000a900473ffffffffffffffffffffffffffffffffffffffff1673ffffffffffffffffffffffffffffffffffffffff1673ffffffffffffffffffffffffffffffffffffffff1681525050905060008160e0015190506001151560008085815260200190815260200160002060060160009054906101000a900460ff1615151461078457600080fd5b600080600085815260200190815260200160002060060160006101000a81548160ff0219169083151502179055507f2dc1c672064102cf1f01b75748ac8877ba10b695bafebcc384bd92a7f92054c660015483602001518460400151856060015186608001518760a00151600033604051610806989796959493929190610a90565b60405180910390a1505050565b82805461081f90610c1f565b90600052602060002090601f0160209004810192826108415760008555610888565b82601f1061085a57805160ff1916838001178555610888565b82800160010185558215610888579182015b8281111561088757825182559160200191906001019061086c565b5b5090506108959190610899565b5090565b5b808211156108b257600081600090555060010161089a565b5090565b60006108c96108c484610b48565b610b23565b9050828152602081018484840111156108e5576108e4610d5d565b5b6108f0848285610bdd565b509392505050565b600082601f83011261090d5761090c610d58565b5b813561091d8482602086016108b6565b91505092915050565b60008135905061093581610d7d565b92915050565b60008060006060848603121561095457610953610d67565b5b600084013567ffffffffffffffff81111561097257610971610d62565b5b61097e868287016108f8565b935050602084013567ffffffffffffffff81111561099f5761099e610d62565b5b6109ab868287016108f8565b925050604084013567ffffffffffffffff8111156109cc576109cb610d62565b5b6109d8868287016108f8565b9150509250925092565b6000602082840312156109f8576109f7610d67565b5b6000610a0684828501610926565b91505092915050565b610a1881610b95565b82525050565b610a2781610ba7565b82525050565b6000610a3882610b79565b610a428185610b84565b9350610a52818560208601610bec565b610a5b81610d6c565b840191505092915050565b610a6f81610bd3565b82525050565b6000602082019050610a8a6000830184610a66565b92915050565b600061010082019050610aa6600083018b610a66565b8181036020830152610ab8818a610a2d565b90508181036040830152610acc8189610a2d565b90508181036060830152610ae08188610a2d565b9050610aef6080830187610a66565b610afc60a0830186610a66565b610b0960c0830185610a1e565b610b1660e0830184610a0f565b9998505050505050505050565b6000610b2d610b3e565b9050610b398282610c51565b919050565b6000604051905090565b600067ffffffffffffffff821115610b6357610b62610d29565b5b610b6c82610d6c565b9050602081019050919050565b600081519050919050565b600082825260208201905092915050565b6000610ba082610bb3565b9050919050565b60008115159050919050565b600073ffffffffffffffffffffffffffffffffffffffff82169050919050565b6000819050919050565b82818337600083830152505050565b60005b83811015610c0a578082015181840152602081019050610bef565b83811115610c19576000848401525b50505050565b60006002820490506001821680610c3757607f821691505b60208210811415610c4b57610c4a610cfa565b5b50919050565b610c5a82610d6c565b810181811067ffffffffffffffff82111715610c7957610c78610d29565b5b80604052505050565b6000610c8d82610bd3565b91507fffffffffffffffffffffffffffffffffffffffffffffffffffffffffffffffff821415610cc057610cbf610ccb565b5b600182019050919050565b7f4e487b7100000000000000000000000000000000000000000000000000000000600052601160045260246000fd5b7f4e487b7100000000000000000000000000000000000000000000000000000000600052602260045260246000fd5b7f4e487b7100000000000000000000000000000000000000000000000000000000600052604160045260246000fd5b600080fd5b600080fd5b600080fd5b600080fd5b6000601f19601f8301169050919050565b610d8681610bd3565b8114610d9157600080fd5b5056fea2646970667358221220cef1c58660155adf9344fa851e22b4fb21a746fb926da75e01a9ec61b025e8f264736f6c63430008060033",
  "immutableReferences": {},
  "source": "// SPDX-License-Identifier: MIT\r\npragma solidity ^0.8.6;\r\n\r\ncontract Owners {    \r\n\r\n    struct House {\r\n        uint256 houseId; //Identificador\r\n        string seller; //Nombre Dueo\r\n        string state;  //estado\r\n        string street; //Direccion de la propiedad\r\n        uint precio;  \r\n        uint256 rooms; \r\n        bool isAvailable; //Marcar si esta vendida o no \r\n        address payable vendedor;\r\n    }\r\n\r\n    event HouseEvent (\r\n        uint256 houseId,\r\n        string seller,\r\n        string state,\r\n        string street,\r\n        uint precio, \r\n        uint256 rooms,\r\n        bool isAvailable,\r\n        address payable vendedor\r\n    );\r\n\r\n    event HouseBuy (\r\n        uint256 houseId,\r\n        string seller,\r\n        string state,\r\n        string street,\r\n        uint precio, \r\n        uint256 rooms,\r\n        bool isAvailable,\r\n        address payable vendedor\r\n    );\r\n\r\n    \r\n\r\n    mapping(uint256 => House) public houses;\r\n    uint256 public total=0;\r\n\r\n  \r\n    //Comprar casa\r\n    function buy(uint256 _houseId) payable public{         \r\n      require(_houseId >= 0 && _houseId < total); \r\n      House memory _house = houses[_houseId]; \r\n      address payable _vendedor = _house.vendedor; \r\n      \r\n      //require(msg.value >= _house.precio);\r\n       //La casa se puede comprar\r\n       require(houses[_houseId].isAvailable == true);\r\n\r\n       //Registramos la compra    \r\n       houses[_houseId].isAvailable = false;\r\n      \r\n      //_vendedor.transfer(_house.precio);\r\n      emit HouseBuy(total, _house.seller, _house.state, _house.street , _house.precio, _house.rooms, false, payable(msg.sender)); \r\n    }\r\n\r\n\r\n    //Agregar nueva casa\r\n    function addNewHouse(string memory _seller, string memory _state, string memory _street) public {\r\n      uint _precio=200;\r\n      uint256 _rooms=3;\r\n      total++;\r\n      houses[total]= House(total, _seller, _state, _street , _precio, _rooms, true, payable(msg.sender));\r\n      emit HouseEvent(total, _seller, _state, _street , _precio, _rooms, true, payable(msg.sender));\r\n        \r\n    }\r\n\r\n\r\n}",
  "sourcePath": "C:\\Users\\Laura\\tmp\\Blockchain - copia\\contracts\\Owners.sol",
  "compiler": {
    "name": "solc",
    "version": "0.8.6+commit.11564f7e.Emscripten.clang"
  },
  "schemaVersion": "3.4.4",
  "updatedAt": "2022-02-02T19:58:52.099Z",
  "devdoc": {
    "kind": "dev",
    "methods": {},
    "version": 1
  },
  "userdoc": {
    "kind": "user",
    "methods": {},
    "version": 1
  }
}