{
  "contractName": "Owners",
  "abi": [
    {
      "anonymous": false,
      "inputs": [
        {
          "indexed": false,
          "internalType": "uint256",
          "name": "houseId",
          "type": "uint256"
        },
        {
          "indexed": false,
          "internalType": "string",
          "name": "seller",
          "type": "string"
        },
        {
          "indexed": false,
          "internalType": "string",
          "name": "state",
          "type": "string"
        },
        {
          "indexed": false,
          "internalType": "string",
          "name": "street",
          "type": "string"
        },
        {
          "indexed": false,
          "internalType": "uint256",
          "name": "precio",
          "type": "uint256"
        },
        {
          "indexed": false,
          "internalType": "uint256",
          "name": "rooms",
          "type": "uint256"
        },
        {
          "indexed": false,
          "internalType": "bool",
          "name": "isAvailable",
          "type": "bool"
        }
      ],
      "name": "HouseBuy",
      "type": "event"
    },
    {
      "anonymous": false,
      "inputs": [
        {
          "indexed": false,
          "internalType": "uint256",
          "name": "houseId",
          "type": "uint256"
        },
        {
          "indexed": false,
          "internalType": "string",
          "name": "seller",
          "type": "string"
        },
        {
          "indexed": false,
          "internalType": "string",
          "name": "state",
          "type": "string"
        },
        {
          "indexed": false,
          "internalType": "string",
          "name": "street",
          "type": "string"
        },
        {
          "indexed": false,
          "internalType": "uint256",
          "name": "precio",
          "type": "uint256"
        },
        {
          "indexed": false,
          "internalType": "uint256",
          "name": "rooms",
          "type": "uint256"
        },
        {
          "indexed": false,
          "internalType": "bool",
          "name": "isAvailable",
          "type": "bool"
        }
      ],
      "name": "HouseEvent",
      "type": "event"
    },
    {
      "inputs": [
        {
          "internalType": "uint256",
          "name": "",
          "type": "uint256"
        }
      ],
      "name": "houses",
      "outputs": [
        {
          "internalType": "uint256",
          "name": "houseId",
          "type": "uint256"
        },
        {
          "internalType": "string",
          "name": "seller",
          "type": "string"
        },
        {
          "internalType": "string",
          "name": "state",
          "type": "string"
        },
        {
          "internalType": "string",
          "name": "street",
          "type": "string"
        },
        {
          "internalType": "uint256",
          "name": "precio",
          "type": "uint256"
        },
        {
          "internalType": "uint256",
          "name": "rooms",
          "type": "uint256"
        },
        {
          "internalType": "bool",
          "name": "isAvailable",
          "type": "bool"
        }
      ],
      "stateMutability": "view",
      "type": "function"
    },
    {
      "inputs": [],
      "name": "total",
      "outputs": [
        {
          "internalType": "uint256",
          "name": "",
          "type": "uint256"
        }
      ],
      "stateMutability": "view",
      "type": "function"
    },
    {
      "inputs": [
        {
          "internalType": "uint256",
          "name": "_houseId",
          "type": "uint256"
        }
      ],
      "name": "buy",
      "outputs": [],
      "stateMutability": "nonpayable",
      "type": "function"
    },
    {
      "inputs": [
        {
          "internalType": "string",
          "name": "_seller",
          "type": "string"
        },
        {
          "internalType": "string",
          "name": "_state",
          "type": "string"
        },
        {
          "internalType": "string",
          "name": "_street",
          "type": "string"
        }
      ],
      "name": "addNewHouse",
      "outputs": [],
      "stateMutability": "nonpayable",
      "type": "function"
    }
  ],
  "bytecode": "0x6080604052600060015534801561001557600080fd5b50610d38806100256000396000f3fe608060405234801561001057600080fd5b506004361061004c5760003560e01c80631cd9d1f0146100515780632ddbd13a1461006d578063aeda852f1461008b578063d96a094a146100c1575b600080fd5b61006b60048036038101906100669190610849565b6100dd565b005b61007561024a565b6040516100829190610974565b60405180910390f35b6100a560048036038101906100a091906108f0565b610250565b6040516100b8979695949392919061098f565b60405180910390f35b6100db60048036038101906100d691906108f0565b610437565b005b6000600a600180546100ef9190610a85565b6100f99190610adb565b90506000600390506001600081548092919061011490610bf0565b91905055506040518060e00160405280600154815260200186815260200185815260200184815260200183815260200182815260200160011515815250600080600154815260200190815260200160002060008201518160000155602082015181600101908051906020019061018b929190610721565b5060408201518160020190805190602001906101a8929190610721565b5060608201518160030190805190602001906101c5929190610721565b506080820151816004015560a0820151816005015560c08201518160060160006101000a81548160ff0219169083151502179055509050507fc05643c7be3918764a6fc6d3253a207451ad97352863ea6d89669fcb9aa0286e6001548686868686600160405161023b979695949392919061098f565b60405180910390a15050505050565b60015481565b600060205280600052604060002060009150905080600001549080600101805461027990610b8d565b80601f01602080910402602001604051908101604052809291908181526020018280546102a590610b8d565b80156102f25780601f106102c7576101008083540402835291602001916102f2565b820191906000526020600020905b8154815290600101906020018083116102d557829003601f168201915b50505050509080600201805461030790610b8d565b80601f016020809104026020016040519081016040528092919081815260200182805461033390610b8d565b80156103805780601f1061035557610100808354040283529160200191610380565b820191906000526020600020905b81548152906001019060200180831161036357829003601f168201915b50505050509080600301805461039590610b8d565b80601f01602080910402602001604051908101604052809291908181526020018280546103c190610b8d565b801561040e5780601f106103e35761010080835404028352916020019161040e565b820191906000526020600020905b8154815290600101906020018083116103f157829003601f168201915b5050505050908060040154908060050154908060060160009054906101000a900460ff16905087565b60008110158015610449575060015481105b61045257600080fd5b60008060008381526020019081526020016000206040518060e00160405290816000820154815260200160018201805461048b90610b8d565b80601f01602080910402602001604051908101604052809291908181526020018280546104b790610b8d565b80156105045780601f106104d957610100808354040283529160200191610504565b820191906000526020600020905b8154815290600101906020018083116104e757829003601f168201915b5050505050815260200160028201805461051d90610b8d565b80601f016020809104026020016040519081016040528092919081815260200182805461054990610b8d565b80156105965780601f1061056b57610100808354040283529160200191610596565b820191906000526020600020905b81548152906001019060200180831161057957829003601f168201915b505050505081526020016003820180546105af90610b8d565b80601f01602080910402602001604051908101604052809291908181526020018280546105db90610b8d565b80156106285780601f106105fd57610100808354040283529160200191610628565b820191906000526020600020905b81548152906001019060200180831161060b57829003601f168201915b5050505050815260200160048201548152602001600582015481526020016006820160009054906101000a900460ff16151515158152505090506001151560008084815260200190815260200160002060060160009054906101000a900460ff1615151461069557600080fd5b600080600084815260200190815260200160002060060160006101000a81548160ff0219169083151502179055507fd69b2ef82ebb77213c0220834f8529f2cdc7265cb1f81d2648e08f377febace960015482602001518360400151846060015185608001518660a001516000604051610715979695949392919061098f565b60405180910390a15050565b82805461072d90610b8d565b90600052602060002090601f01602090048101928261074f5760008555610796565b82601f1061076857805160ff1916838001178555610796565b82800160010185558215610796579182015b8281111561079557825182559160200191906001019061077a565b5b5090506107a391906107a7565b5090565b5b808211156107c05760008160009055506001016107a8565b5090565b60006107d76107d284610a38565b610a13565b9050828152602081018484840111156107f3576107f2610ccb565b5b6107fe848285610b4b565b509392505050565b600082601f83011261081b5761081a610cc6565b5b813561082b8482602086016107c4565b91505092915050565b60008135905061084381610ceb565b92915050565b60008060006060848603121561086257610861610cd5565b5b600084013567ffffffffffffffff8111156108805761087f610cd0565b5b61088c86828701610806565b935050602084013567ffffffffffffffff8111156108ad576108ac610cd0565b5b6108b986828701610806565b925050604084013567ffffffffffffffff8111156108da576108d9610cd0565b5b6108e686828701610806565b9150509250925092565b60006020828403121561090657610905610cd5565b5b600061091484828501610834565b91505092915050565b61092681610b35565b82525050565b600061093782610a69565b6109418185610a74565b9350610951818560208601610b5a565b61095a81610cda565b840191505092915050565b61096e81610b41565b82525050565b60006020820190506109896000830184610965565b92915050565b600060e0820190506109a4600083018a610965565b81810360208301526109b6818961092c565b905081810360408301526109ca818861092c565b905081810360608301526109de818761092c565b90506109ed6080830186610965565b6109fa60a0830185610965565b610a0760c083018461091d565b98975050505050505050565b6000610a1d610a2e565b9050610a298282610bbf565b919050565b6000604051905090565b600067ffffffffffffffff821115610a5357610a52610c97565b5b610a5c82610cda565b9050602081019050919050565b600081519050919050565b600082825260208201905092915050565b6000610a9082610b41565b9150610a9b83610b41565b9250827fffffffffffffffffffffffffffffffffffffffffffffffffffffffffffffffff03821115610ad057610acf610c39565b5b828201905092915050565b6000610ae682610b41565b9150610af183610b41565b9250817fffffffffffffffffffffffffffffffffffffffffffffffffffffffffffffffff0483118215151615610b2a57610b29610c39565b5b828202905092915050565b60008115159050919050565b6000819050919050565b82818337600083830152505050565b60005b83811015610b78578082015181840152602081019050610b5d565b83811115610b87576000848401525b50505050565b60006002820490506001821680610ba557607f821691505b60208210811415610bb957610bb8610c68565b5b50919050565b610bc882610cda565b810181811067ffffffffffffffff82111715610be757610be6610c97565b5b80604052505050565b6000610bfb82610b41565b91507fffffffffffffffffffffffffffffffffffffffffffffffffffffffffffffffff821415610c2e57610c2d610c39565b5b600182019050919050565b7f4e487b7100000000000000000000000000000000000000000000000000000000600052601160045260246000fd5b7f4e487b7100000000000000000000000000000000000000000000000000000000600052602260045260246000fd5b7f4e487b7100000000000000000000000000000000000000000000000000000000600052604160045260246000fd5b600080fd5b600080fd5b600080fd5b600080fd5b6000601f19601f8301169050919050565b610cf481610b41565b8114610cff57600080fd5b5056fea2646970667358221220618790c3ba66299e803789fff99f4c29922c42812534dd40c7e689e8a9a7de3564736f6c63430008060033",
  "immutableReferences": {},
  "source": "// SPDX-License-Identifier: MIT\r\npragma solidity ^0.8.6;\r\n\r\ncontract Owners {    \r\n\r\n    struct House {\r\n        uint256 houseId; //Identificador\r\n        string seller; //Nombre Dueo\r\n        string state;  //estado\r\n        string street; //Direccion de la propiedad\r\n        uint256 precio;  \r\n        uint256 rooms; \r\n        bool isAvailable; //Marcar si esta vendida o no \r\n        //address payable owner;\r\n    }\r\n\r\n    event HouseEvent (\r\n        uint256 houseId,\r\n        string seller,\r\n        string state,\r\n        string street,\r\n        uint256 precio, \r\n        uint256 rooms,\r\n        bool isAvailable\r\n    );\r\n\r\n    event HouseBuy (\r\n        uint256 houseId,\r\n        string seller,\r\n        string state,\r\n        string street,\r\n        uint256 precio, \r\n        uint256 rooms,\r\n        bool isAvailable\r\n    );\r\n\r\n    \r\n\r\n    mapping(uint256 => House) public houses;\r\n    uint256 public total=0;\r\n\r\n  \r\n    //Comprar casa\r\n    function buy(uint256 _houseId) public{         \r\n      require(_houseId >= 0 && _houseId < total); \r\n      House memory _house = houses[_houseId]; \r\n      //address payable _vendedor = _house.owner; \r\n      \r\n    \r\n       //La casa se puede comprar\r\n       require(houses[_houseId].isAvailable == true);\r\n\r\n       //Registramos la compra    \r\n       houses[_houseId].isAvailable = false;\r\n      //payable(msg.sender)\r\n      emit HouseBuy(total, _house.seller, _house.state, _house.street , _house.precio, _house.rooms, false); \r\n    }\r\n\r\n\r\n    //Agregar nueva casa\r\n    function addNewHouse(string memory _seller, string memory _state, string memory _street) public {\r\n      uint256 _precio=(total+1)*10;\r\n      uint256 _rooms=3;\r\n      total++;\r\n      houses[total]= House(total, _seller, _state, _street , _precio, _rooms, true);\r\n      emit HouseEvent(total, _seller, _state, _street , _precio, _rooms, true);\r\n        \r\n    }\r\n\r\n\r\n}",
  "sourcePath": "C:\\Users\\Laura\\tmp\\Intento\\contracts\\Owners.sol",
  "compiler": {
    "name": "solc",
    "version": "0.8.6+commit.11564f7e.Emscripten.clang"
  },
  "schemaVersion": "3.4.4",
  "updatedAt": "2022-01-08T13:41:07.927Z",
  "devdoc": {
    "kind": "dev",
    "methods": {},
    "version": 1
  },
  "userdoc": {
    "kind": "user",
    "methods": {},
    "version": 1
  }
}